:400000000040002011000000310500003105000008B500F08FFAC046F8B5224C1223236000F0E4FE204800F09FFD012000F0FEFE0C2000F0BDFD1D4A1D4B1A601D4E8027D0
:40004000FF0537601C4A116802230B4313601B4A1B4B1A601B4A136808218B431360FA20C00000F007FE184800F0FAFDCC229201164B1A60164A174B1A6080221206164BC8
:400080001A600025154B1D604022154B1A600820144900F0D3FD082000F0C4FD37602560F8BDC04630001040001BB7000600008004010B400C020B4078002E402D3E0000C1
:4000C0007C002E406CF02E40DC0500000003014040FF00800000014008010B4000010B4004010140450F000010B572B600222A4B1A60002410E0294863001A1952008218E8
:4001000091881B195B001A5AC31858880004104300F06EFA0134E4B2012CECD9EE2212061F4B1A6099231B041E4A13601E4A13601E4A13601E4A13601E4A13601E4B197854
:4001400002220A431A701D4802783C218A4328390A430270197816220A431A70D8231B04174A1360202217490A60C42080021649086016490A604021154A1160C02149036D
:40018000144A1160C021144A1160144A1360FFF743FF00F01DFA10BD6CF02E4068290100000002400001024000500F4010500F4020500F4030500F4000700F4001700F40A7
:4001C000080004400001044008010440180104400002044008020440000304400803044010B5064C2378002B07D1054B002B02D0044800E000BF0123237010BD600F00209A
:4002000000000000A828010008B5084B002B03D00748084900E000BF07480368002B00D108BD064B002BFBD09847F9E700000000A8280100640F0020A80B002000000000E8
:4002400008B526281ED002D8012804D02CE027280ED0282828D1002000F03AFA002000F077FC0022114B1A70114800F0C7F81BE0012000F06DFC012000F0B6FE0D4800F0D6
:40028000BDF811E00C4B1B78042B0DD10B4800F0B5F8012000F05CFC002000F0A5FE012000F04CFD00F080FD08BDC046CB200020AC280100C8280100D6200020E42801000F
:4002C00008B5D8235B00984204D100200121024A00F0C2FA08BDC046CB20002010B562B6384800F0A1F9002802D0002000F0A4FC354800F065FA00F097FE344800F07EF868
:4003000001F026FA324B1B78012B15D0002B02D0022B30D03FE0012000F006FC2C4B1A782C4B1B789A4236D02B4800F067F8284B1A78284B1A702EE0284A13780133DBB2AA
:400340001370642B09D100F0FBFB01235840C0B200F0EAFB0022214B1A701D4B1A781D4B1B789A4217D01E4800F048F8184B1A78184B1A700FE0002000F0D6FB144B1A789F
:40038000144B1B789A4206D0164800F037F8104B1A78104B1A70032001F0D2F900F0EDFB041C03F061F9042801D0062802D100F099FC03E0022801D000F086FC201C00F027
:4003C000E0FB9DE741020000C1020000FC280100CB200020CC2000200C2901007C0F0020242901003C290100014BC0187047C0465429010008B500F027FE08BD0FB4F0B569
:400400008DB0012489E0252805D0FFF7F3FF129B0133129381E05A1C12925B78732B11D1651CA40012AB9C466444246802E0FFF7E1FF013420780028F9D1129B013312939E
:400440002C1C6AE0642B27D1671CA40012AB9C466444266800256C1C301C0A2101F002F8AD006B46E950301C0A2100F075FF061C251C0028EFD108E0013CA3006A46985833
:40048000FFF7B2FF0078FFF7B5FF002CF4D1129B013312933C1C40E0632B0CD1651CA40012AB9C4664442078FFF7A4FF129B013312932C1C31E0782B2DD1651CA40012AB1A
:4004C0009C466444226800235C1C0F2111409B00684619501209231C002AF5D1E30702D5A30001341A50012C0ED8A300002269465A50013408E0013CA3006A469858FFF709
:4005000073FF0078FFF776FF002CF4D1129B013312932C1C01E0002A04D0129B1878002800D070E70DB0F0BC08BC04B01847C046FEE7C04670B50F4E0F4D13E029686B68D6
:40054000AC68002202E001C901C30432A242FAD1E868002202E0002102C304328242FAD11035013E002EE9D101F078F8FFF7B6FEFEE7C04601000000602C010008B50F4AEB
:40058000136801218B43136000230AE0032B03D89A000B49505800E00A4899000A4A885001332F2BF2D9FFF79FFD0022074B1A60024A116801230B43136008BD0000104022
:4005C000000000003105000000000020C00000200323044A1360044A13600022034B1A607047C0463000304030003140000E3F4008B50A1C002101F06FF808BD08B500F0DA
:40060000DDF808BD08B50023044A1370044A1370044A1370FFF7F2FF08BDC046DF200020D8200020DE20002010B590B0041C0BA82049142201F047F820231F4AD35C002B19
:4006400005D1FFF7DFFF012120231B4AD154002C2CD01A4B1C6008A805AA426006AB0893002101811B311980598017391971002313701231694401F041F9002817D1052357
:4006800000930023019302930D480E49AE2212010BAB01F08FF8002809D101220A4B1A700A4810210C320DF03DFA00E0012010B010BDC04674290100800F0020D0200020B4
:4006C00005090000C8000020D62000208829010008B502282ED81B4B1B78042B2CD11A4B1B785B072BD4002809D1184B1E221A860232596A0A805B6A10325A800CE0012815
:400700000AD1124B96221A86C822D200596A0A805B6A8022D2015A800D4B18700B4820300BF03CFB00280CD1074A117804230B43137006E0012004E00420FF3001E004203D
:40074000FF3008BDD6200020DF200020AC0B0020DE2000207047C04603784078000218437047C04638B583890D2B20D1041C04300021221C33330DF023FA051E11D160682F
:40078000FFF7EAFF830706D50A4B1B6882204000211C984705E0074B1B680620FF30211C9847054A137801218B43137000E00025281C38BDD0200020DF2000207047C0467D
:4007C000014B18607047C046A40F002000B585B00F236B4400221A70103269460A81009301238B8068460021002200230DF0E8F905B000BD10B582B0154B1B68002B24D093
:400800008389102B21D10389012B1ED143681B78022B1AD8041C04300021221C40230DF0CFF9002811D123886A46138000239370201D0190064B1B68D8204000694698471A
:40084000044A137801218B43137002B010BDC046A40F0020DF20002000B585B0002A10D0002810D1012910D101A81023038181800192002100220DF06DF9002807D00120F3
:4008800006E0012004E0012002E0012000E0002005B000BD08B5034B00225A701A70FFF795FF08BDDC20002010B582B0041CFFF759FF0A4B1B78DB070ED4002809D001A90F
:4008C00012238B70A3890B80C87020680CF088FB02E020680CF006FC02B010BDDF2000208379002B07D000200BE0C25C002A07D10133DBB200E00023052BF6D9002000E0E0
:4009000001207047F0B583B0051C0C1C774A117801230B4313704E2800D9D5E08300744AD3589F4601AE0727377000237370301C02F0CCFE377001237370301C02F0C6FEE8
:400940006C4B1E68301CFFF7CBFF00280CD0301C00F002FF674E30680021FFF7FBFE30680121FFF7F7FE25E0634B1B78634A12783F210A4092010B401343614A1278203902
:400980000A40120313435F4A127860310A40520413435D4E33701A0A72701B0CB370301C00F0DAFE301C0021FFF7D4FE301C0121FFF7D0FE03200BF0A1F801A83F2303707A
:4009C000002343700BF0B8F80422504B1A707BE022784F4B1A7077E02378002B74D16378002B06D14B4B0022DA809A804A4A1A6063603E4A137801218B43137064E03B4B86
:400A00001B789B0660D4454B1B78102B02D10522424BDA70424B187840490BF07FF9334A117801230B4313704EE00222374B1A704AE00422354B1A7046E0344B1B78022BEE
:400A400042D02A4A1278D2073ED5284A1278520708D503222D4B1A70244A137804218B43137031E0214A1278120708D50422274B1A701E4A137808218B43137024E0032BF5
:400A800022D10422214B1A701EE02548211C022200F019FE00221E4B1A7015E0FFF7FAFE12E06188162900D9172120880CF0A2FA0AE0201CFFF7F8FE06E00C4B1B78DB072D
:400AC00002D5201CFFF796FE084B1A7811231A4209D0064A137801218B431370114B1B68281C211C984703B0F0BDC046DF200020D02A0100E00B00207CF1FF0F7DF1FF0FFC
:400B00007BF1FF0F78F1FF0FE40B0020D6200020D8200020A80F0020A80B0020540C0020DC200020D0200020044A11687F230B40C001C0B2184310607047C046000304407B
:400B4000024B18680006C00F7047C0460403044004490A68BF231A4080017F3B1840104308607047000304400230800803D00138FDD1C046C046C0467047EFF3108072B68D
:400B8000704780F31088704710B5041CFFF7F5FF07231C40E40404490B68044A134023430B60FFF7EEFF10BD00010B40FFFFC7FF10B586B0041CFFF7E0FF0E4B1B6800932E
:400BC0000D4B1B680193033C0C4B1B5D02930C4B1B68039304AA0B4B04936B4605930A4B1A600A490A4A11601B68FFF7CAFF06B010BDC04608010B4000010B400C2C010004
:400C000030001040B6EA0000080010401700008004001040024B1B68012018407047C0460C002E401F2318401E3B8340181C014B1860704700E100E001BE704738B5041C28
:400C40000D1C1F2802D90020FFF7F6FFA400034B9C4664442068256038BDC0464000002008B5034B1B7A5843FFF77EFF08BDC0465C0C002010B5041C0F4A116801230B4310
:400C800013600E4A0E4B1A600E4A1368802109020B431360002809D100200CE00120FFF7DFFFFFF7B7FF002804D1013C002CF5D1102000E0002010BD60F02E40022000009E
:400CC00078002E4010002E4008B5FFF756FF044A136804218B43136030BFFFF752FF08BD10ED00E030B583B0FFF747FF041C0E4A13685B005B0813600C4B1B889BB20C4A6C
:400D000013600C4A116804230B4313600A4D2B6801930220FFF738FF30BF019B2B60201CFFF72FFF03B030BD00000B4052F1FF0F0C000B4010ED00E000010B4010B5041CA5
:400D4000FFF71BFF002C05D0074B1B6880225202134303E0044B1A68044B1340024A1360FFF70FFF10BDC0462C000B40FFFFFEFF08B5FFF702FF094B1B689B030AD4074B8A
:400D80001968074A0A4007490A431A601A681A681A681A60FFF7F5FE08BDC0462C000B40FF000100003A028010B5FFF7E6FE094C226880235B021340F22213432360FFF765
:400DC000D7FF23688022120613432360C046C04630BF10BD2C000B40034B1868C0231B02184000D00120704700010B4010B50D4B1A6801218A431A601A68022082431A60BB
:400E0000094A10683024A043203C204310601068093CA043014311601A68802109060A431A6010BD00F02E4000FF2E4038B51D4B1B6801241C40002802D0012816D02BE02E
:400E4000184B19680122914319601968022081431960154B19682E3081432038014319601968093881430A431A6018E00D4B1A6802218A431A600C4A10680725A843014374
:400E80001160116830208143103801431160196801220A431A6002E00020FFF7CDFE201C38BDC04600F02E4000FF2E4008B5FFF764FE044A1368C02109020B431360FFF786
:400EC00060FE08BD00010B4010B5FFF756FE08490A68084B1A408024E40122430A600A6813408022120213430B60FFF74AFE10BD00010B40FF3FFFFF70B5061CFFF73DFE65
:400F0000041CFFF769FF002803D0FFF7DDFF012500E000250848331C0340084A106808490840184310601368012D01D1FFF7BEFF201CFFF726FE70BD0404040010020B4011
:400F4000FBFBFBFF10B5244B1B685B0715D5234B5B685B070ED5224B596A042001401F4C62688A4362605A6A82435A629B69002B00D098470420FFF7BFFF174B1B685B056F
:400F800018D5164B5B685B0510D5154B596A8022D2001140114842688A434260596A114A0A405A62DB69002B00D098478020C000FFF7A2FF084B1B685B030CD5074B5B681E
:400FC0005B0304D5064B1B6A002B00D098478020C002FFF791FF10BD10020B406C0C0020B00F0020FFFBFFFF04490A68BF231A4080017F3B18401043086070470002044043
:4010000008B500F081F808BD08B500F02BF808BD08B5044A1368802109060B431360FFF7EFFF08BD0000244008B5064B1B78002B04D1FFF7E9FF0122024B1A70FFF7E8FFD6
:4010400008BDC046D80F0020044B1B681F221340082BF9D0024B18607047C046080224404002244010B5154A154B1A600023154A13600121144A1160144A1548026007247A
:4010800014480460144803601448016014490A60144A13600421144A1160144A1360144A1360144A1360144A1360144A1360144A13601268134B1A8010BDC0460B00000230
:4010C0000000244040002440480024400700008000032440040324401003244044002440000224400402244050002440880E2440C80E2440480F2440080F2440C80F24409B
:40110000880F2440DA0F0020064A1168064B0B40902109040B431360044B1A88044B1A607047C04600010240FFFF0FFFDA0F0020880F24400160704701607047324B1A78BE
:401140001202324B1B781A43314B1B781B02314909780B4330498B4201D1072A06D0D42109018B4206D1042A04D102E02B4B042200E02A4B2A490B602A4B1A602A4B1B780C
:401180001B022A4A1278134380229201934202D0002B02D002E0264B00E0254B254A1360254B1B781B02254A12781343244A934205D0244A934204D0052B05D103E0224B6C
:4011C00002E0214B00E0204B204A1360204B1B681B09204A1268AA2A15D1012B13D9164B1B780E2B0FD11C4B1B781B021B4A127813431B4A13601B4B1B781B021A4A12786C
:4012000013431A4A13607047D9F0FF0FD8F0FF0FDFF0FF0FDEF0FF0F580B0000580D00006C002E4074002E40DBF0FF0FDAF0FF0F0220000078002E40DDF0FF0FDCF0FF0F72
:401240000F0F000005050000050F000080002E40EC0F00F0E00F00F06DF2FF0F6CF2FF0F84002E406FF2FF0F6EF2FF0F94002E4008B5FFF7F5FC08BD08B500F04BF808BDB2
:4012800008B500F04FF808BD08B500F04BF8034800F02AF8032000F02DF808BD5113000008B5024800F046F808BDC046511300000220FF307047C0462B2070472B20704751
:4012C0002B2070472B2070472B2070472B2070472B2070472B2070472B2070472B2070472B2070477047C046014B18677047C0460000002010B5041CFFF73FFC044A136898
:40130000C0218B43A4011C431460FFF73AFC10BD0CE400E080225201014B1A607047C04600E100E080225201014B1A607047C04680E100E010B5041CFFF7F4FF201CFFF7CB
:40134000D3FF0320FFF7D6FFFFF7E4FF10BDC04608B511F095FA08BD002243088B4274D303098B425FD3030A8B4244D3030B8B4228D3030C8B420DD3FF22090212BA030CD9
:401380008B4202D31212090265D0030B8B4219D300E0090AC30B8B4201D3CB03C01A5241830B8B4201D38B03C01A5241430B8B4201D34B03C01A5241030B8B4201D30B0332
:4013C000C01A5241C30A8B4201D3CB02C01A5241830A8B4201D38B02C01A5241430A8B4201D34B02C01A5241030A8B4201D30B02C01A5241CDD2C3098B4201D3CB01C01A2E
:40140000524183098B4201D38B01C01A524143098B4201D34B01C01A524103098B4201D30B01C01A5241C3088B4201D3CB00C01A524183088B4201D38B00C01A5241430814
:401440008B4201D34B00C01A5241411A00D20146524110467047FFE701B5002000F0FCF802BDC0460029F7D003B5FFF775FF0EBC4243891A1847C04603460B437FD4002225
:4014800043088B4274D303098B425FD3030A8B4244D3030B8B4228D3030C8B420DD3FF22090212BA030C8B4202D31212090265D0030B8B4219D300E0090AC30B8B4201D309
:4014C000CB03C01A5241830B8B4201D38B03C01A5241430B8B4201D34B03C01A5241030B8B4201D30B03C01A5241C30A8B4201D3CB02C01A5241830A8B4201D38B02C01A76
:401500005241430A8B4201D34B02C01A5241030A8B4201D30B02C01A5241CDD2C3098B4201D3CB01C01A524183098B4201D38B01C01A524143098B4201D34B01C01A524137
:4015400003098B4201D30B01C01A5241C3088B4201D3CB00C01A524183088B4201D38B00C01A524143088B4201D34B00C01A5241411A00D201465241104670475DE0CA0FAF
:4015800000D04942031000D34042534000229C4603098B422DD3030A8B4212D3FC22890112BA030A8B420CD3890192118B4208D3890192118B4204D389013AD0921100E04F
:4015C0008909C3098B4201D3CB01C01A524183098B4201D38B01C01A524143098B4201D34B01C01A524103098B4201D30B01C01A5241C3088B4201D3CB00C01A5241830892
:401600008B4201D38B00C01A5241D9D243088B4201D34B00C01A5241411A00D20146634652415B10104601D34042002B00D54942704763465B1000D3404201B5002000F08A
:401640000BF802BD0029F8D003B5FFF715FF0EBC4243891A1847C0467047C0460E4B70B500251E1C0D4CE41AA410A54204D0AB00F35898470135F8E711F0E0FA084B002501
:401680001E1C084CE41AA410A54204D0AB00F35898470135F8E770BD482C0100482C0100482C0100502C010030B50024944208D0035D651C0C5DA34201D0181B02E02C1C28
:4016C000F4E7002030BD002310B5934203D0CC5CC4540133F9E710BD031C8218934202D019700133FAE77047134A1088810703D08107890F401A001D11791030484381B22D
:401700005088820703D08207920F801A001D800040180A494030098980B2CA0701D0503080B2890706D504495422091F09785143081880B2704700007A0C0020DC0F0020BC
:4017400010B501F0F9FE10BD10B501F00BFF10BD10B500F04FFA10BD10B50749044609780220002907D1204601F04CFF002802D120460AF0B9FA10BDE40D002070B5044697
:401780000120002C12D02368002B0FD0616800290CD0074D06222889208118462968FFF792FF6968606809780170002070BD0000DC0F0020FFB585B0002768460E9D07738D
:4017C0004C481C460078002802D0082009B0F0BD10990F9801900095029105A807C800F0FBF80028F2D16946264603AB84460873002C19D0002115E08A00B75A082F09D9B3
:4018000090198078002805D0083FB7521878401C187005E0002915D00027B75290198770491CC9B2A942E7D360460028CED10F9800280AD0109901F033FA0006000E04D039
:401840000120C3E701208446EEE701F08BFE2948002101610C300599016021888180022D03D3A1798171A17AC17100211EE0481C19E082008B00A75AE65ABE46BE4211D27B
:401880006F463E80B4461E190296B678BE7001967646E6521719029EBB78B3706646A652019EBE70401CA842E3D3491CA942DED3114800906846037B22460799069800F0C6
:4018C00013F9002882D168460A4C007B60700A4801F078FE0028B4D1204607490C3007F02DFA0028ADD107F047FA0028A9D1012121706BE7740C0020DC0F0020F8B5054674
:4019000033480E460078002802D002242046F8BD002E5BD000242F49002D16D02A89D0070DD02868002808D003881B3BE12B04D24088FB2801D81B2801D2012409E09007E4
:4019400007D56868002804D1F7E70020088108604860002CDAD11F482F8907811C481B21801D018041800421017119490020891C0870F80705D016480622801D2968FFF776
:40198000A2FE1449B80703D56A681148127882700F480D46801D0860001F486001F058FE0B48801D01F046FE28890DF0B7F928890DF01EFB03461033FFF796FE1F21C018B7
:4019C000890140180249308088809FE701249DE7740C0020DC0F0020FFB58446384F1C460020BB883F78054602460646002F11D100290ED0029999420BD36146002908D0B4
:401A0000002C06D00A99002906D02E4B0B99994202D2012004B0F0BD002144E0AB001F19BF78002F3BD0E35A002B38D07B43591889B22B0000F04AF8050410161C25310043
:401A4000A7782388BC46FF27233BEB37BB4222D26346032B1FD322E0A388002B1FD0302B19D31CE02389002B19D0282B13D316E0A289002A13D01346134F233BBB420AD297
:401A80000DE0268A002A0AD033460F4F233BBB4201D2964203D901200EE0002001E000280AD16D1CEDB2099B9D42B7D31C2463435B1802998B42ACD89642AAD8AAE7000054
:401AC000740C002079020000BAFF000030B47446641E2578641CAB4200D21D46635D5B00E31830BC18470000FFB583B0002469460C801F4606468C80002806D0059800288C
:401B000003D004983043800701D0012467E0002FFBD03449049809888842F6D3FFF7C0FBFFF7AEFB00F010FC002856D100F06CFD002852D12C49084601F0E6F805042D0CB5
:401B40004BD12A480499066081800021C18007810C98007AC00704D0684601F01CFD040007D10C98007A800703D501A801F01CFD0446BF1DFEB2002C21D13146059800F074
:401B80005DF804001BD10DF041FA0406240E16D16A461088928808368518144AF1B29088D288AEB29319984207D3401B801A80B201F09AFB050007D000E0FF25012400F073
:401BC0005BFA002D04D008E0F8B200F01BF9F6E700F07EFA06490120087000F0C7FB204607B0F0BD780C0020291D0000E80F0020880C002010B503480078012801D101F027
:401C000015FA10BD880C002070B5084B0446DA889E8800205518B54206D81D68AA182260DA885118D98070BD032070BDE80F00200148008970470000E80F0020F0B587B06B
:401C400007460D4600208900009006916846FFF7DBFF844600285DD1304800990160002117E02E4B88001A680629115406D22C4C0419667882185670628805E0C419203C02
:401C8000A67A8218567022891B68C018491C4280C9B2A942E5D300242DE0601CC2B2059025E01E4FA30039689600581840887118039604904E88B04217D938466F46FE8000
:401CC000B6464F786E4677710297049F4F800168039F5E18767879184E700168764659184E800068029F18184770521CD2B2AA42D7D30598C4B2AC42CFD36046002809D195
:401D000068460699FFF780FF8446002802D1054900980860604607B0F0BD00008C0C0020702C0100900C00207047000010B5002809D005494A68002A05D0011F0878800017
:401D4000105801F07FFA10BD8C0C002010B50446FFF76EFFC0B2801DA0420CD307484068002808D0A100405801F0DEF9002801D00470001D10BD002010BD00008C0C0020D6
:401D8000F8B516460D460446FFF752FFC0B2801DA04203D20020C0430090F8BDB2B2E9B2684601F0E7F90099481C03D0024AA000526811500098F8BD8C0C0020F8B50746B4
:401DC000FFF736FF801DC6B20A49002005460C680DE06178002907D06188B94202D32078FFF7B4FF002804D1241D6D1CEDB2B542EFD3F8BD8C0C002010B5002801D0FFF771
:401E000095FF10BD70B506460948002504680BE06178002905D062882078121D0023FFF7AFFF241D6D1CEDB2B542F1D370BD00008C0C0020FFB581B00A9C16002BD000F01F
:401E4000F1F80546042826D0214F002C0BD02046FFF7B4FF2901C919486000281BD022460499FFF730FC1A4928010E5046187481019805707D20029CC000444300F0C0F823
:401E8000009004280AD000F055FAA0420ED800F051FA201A06E0FF2005B0F0BD204600F0ADFA0020B08135720020F5E700F042FA074600F0B9FA381B87B23846012100F080
:401EC000EFF800980101024808188781E6E70000F40F0020F8B5060117483418217A042903D0A089002802D018E00020F8BD00F021FA054600F098FA00F0A2F804280DD0AA
:401F000001010D480F18B88941198DB2002100F0C7F80020B881284600F070FA6068064D002801D0FFF768FF042020720020A8516081A081D9E70000F40F0020FEB500265A
:401F40006A46304601232549050169180D7A042D02D0898900291BD000211154401CC0B20428F0D300246846005D002830D01B482101081841894768056802910021016038
:401F800041600422418102728181002E02D015E01354E3E700F054F804280ED001010F480818019086890021304600F079F8019800218181304600F021FA0126002D07D03D
:401FC00038460299A847002F02D03846FFF714FF641CE4B2042CC6D3FEBD0000F40F00200EB5002005216A460090118150810348694600680DF07FFE0EBD0000940C002081
:40200000074A0020010189180B7A042B02D08989002903D0401CC0B20428F3D370470000F40F00200549002002015218127A042A03D0401CC0B20428F6D37047F40F002059
:4020400030B50A4B04200A4C00210A011219157A042D06D09289002A03D09A4201D808461346491CC9B20429EFD330BDFFFF0000F40F00207047000030B50020074C054614
:402080000423020111190B72A5504D60401C4D81C0B28D810428F4D330BD0000F40F002030B5094C00231A011219157A042D04D09589002906D02D1895815B1CDBB2042B1E
:4020C000F1D330BD2D1AF7E7F40F0020002070471CB5002469460C70142001902346054A05480DF00DFE04480068401C00D1FF2420461CBD4D210000940C00203EB5124A5E
:402100000146FF2000230124126800290DD0012914D0042908D104206946009308814B8110460DF0E8FD80B23EBD6846009304814381694610460DF0D9FDF4E768460093BF
:40214000048143816946EBE7940C002070B545890468416800890300FFF7B8FC08280509091E22282628002005F0FAFC1EE0022908D0C8B22A4621460BF080FF2046FFF767
:402180003BFE13E002202A4621460BF077FF2946204600F00DF809E000200DF09BFA05E02046FFF7CBFE01E0FFF79CF8002070BD014B0022DB681847980C002070B544899C
:4021C00005680089022803D0032809D0FF2070BD2246094C0023A46829460120A04708E0FFF7B2FA241DA2B200232946022006F056FC002070BD0000980C00207047000056
:40220000024800214160018041807047980C002070B50C46002186B016460391012802D0022859D116E003A9012006F098FC01281BD1039D324621462846FFF744FA0095B0
:40224000287801900220694608814E816846FFF7B5FF41E0214D002B686809D0049004A9022006F07CFC01281DD0022006B070BD002812D0298840182146FFF724FA28881F
:402280000024801980B228806988091D884206D12C801348FFF792FF03E00320E6E788421AD96C6018E004986860E278A378110219430B4A698000231060E35653600323C2
:4022C00013815181A1788170E178C1706178417021780170042028800020C7E7980C0020341000203EB515460C46022803D004280CD000203EBD0091019002206946088152
:4023000007484A8100680DF0F6FC07E00BF0B6FE044B0022DB6829462046984701203EBD940C0020980C0020014AD16090607047980C0020034801688068081A0A21484333
:40234000000970474010002010B5FEF79DFF482204490548FFF7B7F903490120C870002010BD00008C2C01004414002010B5FEF783FF10BD70B5134C2368002B08D0207BB4
:402380001149C20705D04008400020738868A08070BD88680B4AA18880B29268814203D90A4D691A091802E0814202D2411A5118A160A080A0689842EAD30DF0B9FC00F0FA
:4023C00013F870BD40100020C0102E40FFFF000010B508461946FFF7A7FF10BD704710B5FFF780FF10BD000003480021016041608160C1607047000040100020024610B5BC
:40240000FF20002A0CD0FFF7EFFF064C0321207B0843207310010A21FFF724F82060002010BD00004010002000B504480A21806848430209FFF7D8FF104600BD401000207F
:402440000248007B8007C00F704700004010002010B544490868002802DA434B01221A70022290430860414800693E49C00B4031096A08425ED0012000F0D0FA3B483C4937
:402480007C30FEF759FE37480E216C30FEF754FE364820218430FEF74FFE344814219C30FEF74AFE3148FF21C131A430FEF744FE2E48FF212F31B030FEF73EFE2B482D499E
:4024C000BC30FEF739FE29482B49AC30FEF734FE29492648491CB430FEF72EFE23482749B830FEF729FE21482549CC30FEF724FE1E4824490830FEF71FFE1C482249A83005
:40250000FEF71AFE194821498830FEF715FE17481F498C30FEF710FE14481921C9029030FEF70AFEFEF70AFEFEF7C2FEC0B2022802D00FE0FF2010BD16491748FEF7FCFDB8
:4025400015481649001DFEF7F7FD134800210830FEF7F2FD54200449C043891C0870002010BD000000F02E40A80C002000002E4055650000320300002F3F00003102000003
:4025800010520000EC160000FA12000031D000003AE300009956000080012E40F80F000070B50646581C80B245086D00002408E0304600F0C1F81055000A1119A41C48709B
:4025C000A4B2AC42F4D3D80705D0D0182038D15CC47FD454C17770BD30B50A4C002100195B1E07E0541864782502545C2C430480891C89B29942F5DB994201D1515C018092
:4026000030BD000000102E4010B5FF2000F006FA0F49FF2048700E481021801D41800121417001700A490020C91C4870FFF710FF04000AD100F01AF907210648FEF77AFD2A
:40264000044807211830FEF775FD204610BD0000A80C0020CC112E4070B5002405465B1E0AE0284600F068F8010A161971702D1D1055A41CADB2A4B29C42F2DB9C4203D194
:40268000284600F059F8105570BD000070B500210A4D5B1E0AE0541864782602545C344346193480001D891C80B289B29942F2DB994202D1515C4019018070BD00102E4078
:4026C000F0B50599091FCFB200217E1E0BE0541864782502545C2C43164D45192C80001D891C80B289B2B142F1DBFC0712D01C78515C24020F4A0C4381180C809C785D785B
:40270000001D210280B2294384182180001D80B2D9780CE059781A7809021143054A84182180001DD9789B78090280B2194380180180F0BD00102E40014940180088704765
:4027400000102E4010B50B490020487000F08EF8002000F089F9002000F076F907210648FEF7E8FC044807211830FEF7E3FC002010BD0000AB0C0020CC112E4010B5064862
:402780000078012803D102210448FEF7D5FC02490020C91E087010BDAB0C002070F02E4010B50B46062812D006DC01280CD0032801D1FFF7C7FF10BD0A28FCD00B28FAD1A4
:4027C00005480078107010BDFFF71EFF10BD1146184600F065F910BDAE0C0020F8B5204DAC6A0127A0071F4E002816DA307806280ED1286A384328621B480069F90308435A
:4028000081B219481030FEF797FC042000F006F9134802212830FEF78DFCE00711D0062000F0FCF80F49FF20C91E48707078002802D1686B38436863094801212830FEF731
:4028400079FCE0050BD53078042802D1052000F0E5F80348FF2101312830FEF76BFCF8BD40F02E40AB0C002000002E4010B503212348FEF761FC0120FEF7FAFC204830381A
:40288000406A204C80076178800F890001431C480C38FEF751FC6078002808D0401E022181401820FEF7CEFEC000083800E0B82081B21548FEF740FC1348032109021438FA
:4028C000FEF73AFC10481149B830FEF735FC612189010F48FEF730FC0D480321001FFEF72BFC0C490C48FEF727FC0B480B496038FEF722FC084801218838FEF71DFC10BD95
:4029000070F02E40AE0C0020D8102E4090890000041E2E40FF0F000058122E4020900000044800684007400F022801D0002070470120704700010B4000B5FFF7F1FF002857
:4029400005D009480168C908C900016000BD0748016A490849000162054801690122D2039143016100BD000000010B4040F02E4000002E400849087806280BD14878074974
:40298000002803D1486B400840004863C86A01221043C86270470000AB0C002040F02E400148007870470000AB0C002002484078022800D001207047A80C002000B5030088
:4029C000FFF784F8080D050D0B070507090D012000BD032000BD042000BD022000BDFF2000BD0000074A9168D26889B2064B92B2994204D105498A4201D1012100E000219D
:402A00000170704780002E4033D000003FE300000149487070470000AB0C002010B50446FEF72EFC072C01D9FF2C01D102480470FEF722FC10BD0000AB0C0020014948701C
:402A400070470000A80C002010B5064A012805D01921C9021046FEF76FFB10BD1D21C902F8E7000090002E4010B50A4A141D012808D009491046FEF75FFB08492046FEF75D
:402A80005BFB10BD04491046891CFEF755FB0349491DF3E788002E4031D000003AE3000070B50C460546FEF703FCC0B202280E49287804D0FF2810D04C280CD810E0FF2833
:402AC00009D10A4AD0680004800F032801D0087807E09069000A553803E00878207070BD4F382070087070BDAA0C002000002E40F0B50122002830D000292ED00424420643
:402B000000D00524792342065B06D21800D0641C034600221EE00C2516466E43104D00277519AF720E4F002ABB51696007D0661EB24209D10B4E86197606760E05E05E067D
:402B4000760E8027BE1B00E080269B198919521C2E81D2B2A242DED300221046F0BD0000CC12002079020000074900200C2242435218927A012A05D0401CC0B20628F5D344
:402B80000020704701207047CC120020F8B50F000446164609D0184D18496868A04202D94018A04201D38E4201D90120F8BD39462046FEF779FD00281BD03246394620468C
:402BC000FEF781FDF0B200210C224A43521913895668F718A74208D90127A41B1B1B9772834206DAC01A1469C0B2491CC9B20629EAD30020F8BD0000CC1200207902000098
:402C000010B500F05DF80748054AC16806480C46FEF759FD04492046FFF76AFF10BD000079020000B40C002050100020002070470020054A002902D0012902D002E050604F
:402C400000E0906000207047B40C002070B5084C154608460549A26889182A46FEF733FDA0684019A06028B270BD000050100020B40C00203EB50A226946FFF7E7FF044661
:402C800006480A2200686946FEF70EFD002802D00020C0433EBD20463EBD0000B40C0020002802D0044A914201D2FF20704703490A61C8600020704779020000B40C002055
:402CC000024800214160816070470000B40C002070B5074C15460548626880182A46FFF755FF60684019606028B270BD50100020B40C002010B503490A220968FFF7E8FF41
:402D000010BD0000B40C002010B50F4A002313600E4A13600E4B18600E4801600E49012008600E490860000290600E490C4808600D4914300860FF381538506000F0BCF861
:402D400000F0CAF9002010BDE00C0020C80C0020F40C0020F80C0020E40C0020D40C002014140020D80C0020EC0C0020014610B50020002910D0094B1A689C685118A142A0
:402D800009D25868196080188A0704D08A07920F891A091D196010BD002010BDC80C0020F8B50024164E671E321F3D463168136806E01422624310328A58521C1BD0641C80
:402DC0009C42F6D36A1C14D02C461422544322460C3288500C214843FFF7C8FF3168002808510AD031680020103408517068401C70602846F8BD2546E4E73846F8BD0000B6
:402E0000D80C0020F3B50026F64381B000281BDB1E490968884217D80299002914D01B4F142204463F1D54432546396810354859401C09D0FEF724FA38682F1F4159C35944
:402E4000994203DBFEF718FA3046FEBD214608310091465801590C20704308180C220299FEF731FC0948761C001D0068C159B14200D100260549009A091D865008684159F4
:402E8000491C4151FEF7F8F90020FEBDD40C0020002803DB07490968884202D90020C043704704491422091D096850431030085870470000D40C0020F0B500200D4A451E91
:402EC0000346171F50600FE014260146714314680E1DA3510C461668083433511668083435511468401C635039688842ECD30020F0BD0000D80C0020F3B50026F64381B056
:402F0000002841DB2349096888423DD8029900293AD0204F142204463F1D54432546396810354859401C2FD0FEF7AAF93868415900292BD0211D009146580C2100597143F7
:402F40000F46C1190C220298FEF7BDFB11480021001D0068761C00590C34C0190160416081600C48001D00680159B14200D100260849009A091D865008684159491E4151C0
:402F8000FEF77AF90020FEBD3046FEBDFEF774F9FAE70000D40C0020FEB504460D4600201E49089E0860471E009001900290002C11D0486885420ED2002A0CD0002E0AD0EB
:402FC000642E08D808460C3001681C2068430C18207A002801D03846FEBD0120226020721846FFF7DDFE6060401C13D06681A6810A4827610C3067610179A94200D2057199
:403000000021684601810A462846029B00F040F82846FEBD00202072DDE70000E00C002038B50124009400F039F838BDFEB50027164EFF433D4600240EE01C2031686043C8
:403040000818017A002906D04068FFF721FF002801D0254603E0641C3079A042EDDA681C12D01C2130684D434419FEF709F969466068FFF741FF0546FEF7FEF8002DD9D106
:40308000216868468847D5E7FEBD0000EC0C002038B50024009400F001F838BD1FB500220C49541E0A60002811DB496888420ED808491C220C31096850430818406801A91A
:4030C000FFF7A0FE401C02D0002004B010BD2046FBE70000E00C0020F0B50021114A4D1E174611710C3F0B46BD6016E008461C2460431668041D35511468064623501468F2
:403100000836A3551468361DA353044616680A34335318301468491C255078688142E5D30020F0BDEC0C002038B500210091002811DB0F49097888420DDA0D4D04010C354D
:4031400029680859002807D0201D0818694600F06FF9002801D0002038BDFEF791F828680F34015D491E0155FEF786F8009838BDFC0C0020F7B582B0002502986E1E0660C9
:403180002E48D21C024017462D4A2C4610460C380178106805E02301C358002B0FD0641CE4B28C42F7D3711C28D03401211D40180191039900F02AF900281FD101E02646C6
:4031C000F1E71F48016820460C300F521C480399026820460E30115419480399026820460F3011540398784300F0A0F8144900280968085102D00024009011E001251AE07C
:403200000F48016801980818009900F02CF9002801D0012502E00098C0190090641CE4B203988442ECD3002D05D10298066004480179491C0171284605B0F0BDFCFF0000C4
:40324000080D0020F8B50D4600216A468C461180002839DB23490978884235DA214B04010C3319680A59002A2ED020460C300B5A801C0E5C184670438018954224D38542DC
:4032800022D2002006E007465F43BF18AF4206D0401CC0B2B042F6D36046002814D0114E271DC8190C366A46294600F006F900280AD168460088012808D030682946C0195E
:4032C00000F0D1F8002803D00120F8BD0020F8BDFDF7D6FF30680F34015D491C0155FDF7CBFFF3E7FC0C0020F8B50F46002400F031F8002817D10C4900220B460C334A60F2
:403300000EE021011D680E466A501D680C36AA53B61C1D680F31AA551D68641C6A54E4B2BC42EED31A71F8BDFC0C002000280BD0C01C074A81085068890053884118994207
:4033400003D89368516018187047002070470000FC0C0020F8B5064600200F4D009029700C0121466846FEF74FFC00280CD129460C3100980860301B001F84B2214668467A
:40338000FEF742FC002801D0FF20F8BD6C800098A8600020F8BD0000FC0C0020F8B5002827DB19490978884223DA174C05010C342168485900281CD028460C30085A009080
:4033C00028460E300E5C401C0E5420682F1DC01900F064F800280CD12068002445590EE0094829460C300068C01900F03CF8002801D00120F8BD00982D18641CE4B2B442AA
:40340000EED30020F8BD0000FC0C002030B50D4604000BD0A800FFF789FF6060002805D000202570C0436080002030BD012030BD70B50D46040005D0002D03D00220205E30
:40344000002801DA012070BDFDF71AFF0221615E60688900405828606088401E6080FDF70BFF002070BD70B50D46040007D0002D05D002212078615E401E814201DB01203D
:4034800070BDFDF7FDFE6088401C00B26080616880000D50FDF7F0FE002070BD10B5040009D0227800216068FEF716F90020C0436080002010BD012010BDF0B500231D4613
:4034C000002802D00224045F0AE00120F0BD46689F00F6598E4201D1012503E05B1CDBB29C42F4DA15700020F0BD00000148007870470000100D00207CB505460024FEF7FE
:4035000023F9A8796946087000A8062229460130FEF7D9F80021684604F0E8FD0C2804D0072804D01F2804D004E0022402E0042400E0272420467CBD10B502280BD0032850
:4035400002D0042809D102E000F048F905E000F0F3F9FF2801D100F003FAFFF721FAFFF72DFA10BD10B500F02BFAFFF719FAFFF725FA10BD70B504460025FEF7E5F8002C67
:4035800006D0A079012803D8214602F0CDFC00E00125284670BD01460120002902D05020088000207047000001460120002905D00348542200785043088000207047000092
:4035C000120D002010B502460D49FE204870032410460CF0B3FE002810D10CF057FE00280CD105F019FB002808D100F0F3FB002804D104F0FFFF002800D10024204610BDA3
:40360000100D002070B50025044600280ED0A07901280BD8FEF798F8A0790028204602D003F05EF803E003F033F800E00125284670BD0000014610B50120002904D0062253
:403640000248FEF740F8002010BD0000140D002001460120002903D0087802490870002070470000120D002010B5FFF799F9012801D1FFF79BF910BD38B504460120002CC5
:4036800020D0617801291DD800290BD0FF25E535FEF75AF80C4828180088C0B22070072803D00EE0FF25CD35F2E70020694608706846FFF797F969460878012801D10820BF
:4036C0002070002038BD000000102E40F8B504460120002C26D06178012902D92278092A20D8002905D0FF25E5352078092803D004E0FF25CD35F8E708202070FEF724F840
:403700002078114F114E08280DD00020FFF7ACF970780128207810D00D4969180880FE2070700020F8BD0120FFF79EF90720B8810549203188800120F2E7B88102482178E4
:4037400020308180EBE70000C0112E40100D002000102E4070B50E46050001D0002400E00C4C002C11D0E28A500609D5D107C90F022003F053F8E08A40218843E08204E0E8
:40378000D107C90F012003F049F83146284602F027FD70BDAC140020F8B50546002004460D4E009013E022466946284601F04AF80098002801D00CF0A3FDA878214602F05E
:4037C000FDFAA878214602F0EBFA641CE4B2308AA042E8D8F8BD000064150020FEB54E4DFFF7DEF8012849D14C480078002845D002F07EFC002841D004F01AF900283DD02D
:40380000474C6078C00703D000F0E6FC012835D0207E00287DD16078002600285BD0000706D540488089070B00F02EF9384370D13B484178684603F065FF044628793A4D13
:40384000A9784018C1B2A14261D802F051FC00285FD0344860300089314F0190203702F09DFA6846008802F0C7FA02F057FB2F490988884203D10120FFF7D0F849E02C49D3
:40388000012008702648807B00281BD00198002818D04037F87E002814D12248603000884000A0420AD96878002807D102F0E4FF2049088A0322120210430882287800283B
:4038C00000D02E7002F0C6FA0120FFF7A1F800F0F5FB174C15E002F00BFC002819D0102402F01CFB214602F011FA02F085FA104C0120207002F0AEFA0020FFF789F800F076
:40390000DDFB20780128B6D1FFF716F826700020FEBDFF20FEBD000084140020A80C00208C140020A0102E40200D0020320D00201A0D0020E0112E4010B50848FF2440786C
:40394000002809D102F0D4FB012805D1FEF716FF0720FFF763F80024204610BD8C14002038B5FFF71DF8012801D0002038BD02F0BFFB00280AD0114C6078C00703D000F078
:403980002BFC012802D0207E002801D0FF2038BD617800290FD0684603F0B4FE022806D96846008802F028FA012002F059FA0320FFF734F8D9E70020F7E700008C1400208A
:4039C00038B51E4CFEF7ECFF042813D0052811D0062812D003282AD007280AD100206946087002460120FEF7DBFEFEF7D9FF0128FBD138BD00F082FB38BD02F049FA00F078
:403A00007DFB02F0C5FA8007800F0228F4D10C4841880029F0D05B21095D0029ECD101210170A07D0140022002F0F8FE38BD02F033FA0120FEF7F2FF38BD0000AC1400209F
:403A4000200D0020F8B50646002402F055FF0546304602F06BFF03460A480021068A0DE001228A401046174628401F40002803D0002F01D1224394B2491CC9B28E42EFD8BB
:403A80002046F8BD6415002070B500252C460A4E03E0002C01D0002000E030460079002803D02046FFF7CEFF0543641C2406240EEFD0284670BD0000AC1400201CB50020FC
:403AC000694648706846FFF7D7FD01AA69460A20FEF766FE6946042008561CBD10B50C4601F082FA002809D00179002906D0C1788078224602F0FAFB002010BD022010BDA6
:403B00000148007870470000841400204030C07E002800D00120704700B500F001F800BD8C2148430749084A40186030417F491CC9B24177D289914201D300214177C8B20D
:403B4000704700008C1400206415002013B501F04BFA04000BD001F0E8FD002807D0214601AA0A310620FEF71BFE00201CBD02201CBD000010B50C4601F036FA00280AD0D4
:403B800001F0D3FD002806D0224604490A20FEF707FE002010BD022010BD00006D140020F3B581B0074601460026029802F09CFE0446002F01D0002500E0154D002D21D068
:403BC000284601F047FA032C04D13946029802F0E7FE06463846029902F0E2F8032C06D0002C10D00121384601F03AFB03E03146384603F0D1F8284601F0C0FF02212846E6
:403C000001F0D6FFFEBD3846029902F0C9F8FEBDAC14002010B5044603F008FD002801D00C2010BD2078611C02F062FCFF2801D01F2010BD02F0A8FCFF280AD02178621C8C
:403C400002F036F8044821780068026B601C904710BD072010BD0000380D002010B503F0E5FC002801D00C2010BD02F023FC03480068C06A8047002010BD0000380D00205F
:403C800070B50D46044610210CF07AFA1021601806460CF075FA334610221946204603F0F3FC102130460CF06BFA02202870204604F0F8FB70BD0000F8B50446407821786B
:403CC00002028006870FE0781143A67809050002090D0643084601F087F900210546F2B2002812D0002C10D0022F0ED0032F0CD0002A0AD00279092A07D0002A05D0134A84
:403D00005A23527E1B5C9A4207D82889002104F0FEFA20460CF0F4FAFF21002914D10C48224600682946436930469847C0B2FF280AD128464030817EF2B2491C8176FF23C1
:403D40002146284600F0DDF8F8BD000044140020500D00200020704710B5044603F066FC002801D00C2010BD2078611C02F0C0FBFF2808D002F0F8FA044821780068426B33
:403D8000601C904710BD1F2010BD0000380D002010B504F02FFC00F057F9002010BD10B5044600786178E2780843A17811430843217908436179084305D003F029FC002885
:403DC00003D00C2010BD122010BD204602F088FC002010BD10B5FDF76BFA02F0AFFD044803F07AFD02F0CAFA012000F003F810BD54140020F1B586B003A8009005A8019051
:403E000025489F22817A114081726846FDF7B6FC00283FD169460989C90705D01F4806990068C2686846904769460989890706D500282FD11A480068816A06988847002868
:403E400028D1184E0025757075737571F575357675767575B570F570B5713746F5730120BC3738731F20F880FF2130467972A0300175457500F076FA00242046069901F01B
:403E8000FFFB002803D1641C2406240EF5D0FD72BD72B57307B0F0BD44140020500D0020380D00208C14002070B505460E46084602F022FD0446304602F038FD0121A94012
:403EC0000A46224001400A4301D0012070BD002070BD10B50446084602F028FD0121A140014201D0012010BD002010BD10B5FEF757FD032804D101F0CFFF0120FEF78EFD42
:403F000010BDFEB51C4616460F46054601F036FEA878FFF701FE02460190334639460094284600F00DF8002808D1A8780199FFF711FCFF2C02D138460CF0E2F9FEBD0000D5
:403F4000FFB585B005460E980C46FF2810D02B49C00009680A5840180179C0795278814201D9012601E09006860F6846038108E06078A1788006860FE078000201436846F0
:403F80000181284601F0DCFB070007D021462846079A00F0EBFB384609B0F0BD304600F099FC04AE0346039002AA29460096204600F025FB3C20405D002818D0284601F023
:403FC000BFFB012813D0684600890096C0B20190A878231DFF22079902F0B6F868460089039BC2B2A878079902F0F6FBD3E7684600890021C0B20091E9E700004C0D002020
:40400000F8B5104F002500242846FFF71BFD060012D00EE03046E040C007C00F07D02146284601F0B3FE21462846FFF7B9FD641CE4B2388AA042EDD86D1C2D062D0EE2D0B6
:40404000F8BD00006415002010B502F097F90020FFF7D0FE0CF0EAF9002010BDF8B5002400F0B4F80123012800D10124104F00203E4620360425082203E0002801D00021A2
:4040800000E031460979002907D001290BD002290BD0114681402143CCB2401C0006000EEBD07C70F8BD1C43F7E72C43F5E700008C14002010B5FFF7D1FF10BD70B50E4C37
:4040C000FCF75BFD0546FEF76BFC062802D02078012803D02846FCF754FD70BDFCF7F4FD2846FCF74EFDFEF75BFC0628F5D020780028E5D170BD00001A0D002010B5FCF7EA
:404100003CFD0446FEF74CFC012809D0FEF748FC022805D0FCF7D8FD2046FCF732FDEEE72046FCF72EFD10BD10B50B4681791943817103D08078114602F01CFB10BD10B5F4
:4041400082798A43827102D1807802F027FB10BD30B50C4C0220A28A0B4B9978002901D0022906D11D785B78EB18282B01D9032002E0032900D101205105490DC00201437D
:40418000A18230BDC0112E401B0D002000B500F023F8002807D0012805D0032801D0042801D0002000BD012000BD014600B50020C90701D000F00AF800BD014600B500206F
:4041C000C90701D000F002F800BD000001480088000A704720102E400448008B410501D5042070474007800F7047000000102E4038B50446000610D5FFF7EEFF01280CD163
:40420000684601F059FE6846007800F0B3FA012001F01CFD0220FFF74DFF0348006801692046884738BD0000380D002010B5034A0178117002F0C0F9002010BD1B0D00209E
:4042400070B50446FFF7C2FF002801D00C2070BDA27B01211F48002A827801D00A4301E05208520082706279012A14D0C17849084900C170184D2868016820468847207945
:4042800001280CD06188208803F000F82080207904280FD015E0C2780A43C270EAE72868C168E01D8847E01D02F006FA0B48808C208006E02868C168E01D8847E01D02F0ED
:4042C000FBF9074920798870204602F083F9002070BD00008C140020380D0020441400201B0D002008B50178FFF770FF814201D10C2008BD002914D0072069460870FFF771
:4043000045FF012807D10121684600F08BF8012801D0092008BDFFF71BFF02F08FF9012011E0FFF733FF012806D1684601F0C4FD6846007800F052FA02F076F9FFF746FFEB
:404340000028FBD10220FFF7B5FE002008BD000010B5034A0178517002F0ECF9002010BD1B0D002038B568460BF060FF002801D01F2038BD01210098C90201804180002533
:4043800005714571857107214173857302F022F9009C202200212046FDF79EF925702A460021601CFDF798F9204602F005F9204602F0C0F900980BF0A3FF042200210248B6
:4043C000FDF78AF9002038BD1B0D00200346084800B5834209D8184600F006FE002804D00089984201D1012000BD002000BD0000FF0E0000074A9179491C8906890E9171C2
:4044000038220A4092014907090E114308430249084070478C140020FF0E0000C006C00E70470000F8B507460E4600240D4803E0002C01D0002500E005462979002905D046
:40444000641C2406240EF3D00020F8BD0021204601F016F92E712046FFF7CCFF28813C700120F8BDAC14002010B503F041F90222002100F003F801F02DFF10BD10B5094B4B
:4044800040074907000F090F185A595A40185043C0086421FCF7E6FF002800D1012080B210BD0000D42C0100F7B53D20405C88B015460C46002802D02878042802D20020AB
:4044C0000BB0F0BD6946087200262046FFF71EFB012800D00126204603A938300191009023460327A17E34333246206A03F00EFA02A8089900900B46019120463A4603A96E
:40450000243003F0A1F802466846007A2870204601F0A2F81046D3E7FFB587B00C4605461078694608723D20005D1746002826D000262046FFF7EAFA012800D00126204638
:4045400003A93830019100902346A17E34333246206A03F0DBF902A80090291D019120462B1D03A924300A9A03F06EF802006846007A388002D1204601F06EF810460BB00D
:40458000F0BDF0B505463C20405C89B016460C4600280CD0307869460873002806D000272046FFF7B3FA012803D003E01F2009B0F0BD012703200890204604A93830019107
:4045C00000902346E17E34333A46E06903F09EF96846007B03A928180290009120462B46019504A92430089A03F062F802466846007B3070204601F039F81046D7E7FFB5B3
:4046000005463C20405C89B016460C46002810D0084601F095F801280BD0308869468883002809D000272046FFF770FA012805D005E000200DB0F0BD0220FBE70127204619
:4046400003A93830019100902346E17E34333A46E06903F05BF9291D2B1D07A8129A6D4607C5204603A924300C9A03F021F802466846808B3080204600F0F8FF1046D9E731
:4046800070B50D460446FFF741FA01280AD0E87AA97A00020143A07801F008FD012808D0002070BD00222421204602F041FD242070BD28214C200155204600F0A3FB282028
:4046C00070BD0000002801D0002000E003484030C07F012800D0002070470000AC1400200146002049070ED50021084B03E0002901D0002200E01A461279022A04D0491CAD
:404700000906090EF3D0704701207047AC1400200146002049070ED50021084B03E0002901D0002200E01A461279022A04D0491C0906090EF3D0704701207047AC1400208C
:4047400010B5044680346068002803D00BF0ECFD0020606010BD4030417070474030817070474030017070470171704792001018C166704770B53C2501F080F9040004D011
:4047800020460021433001F031FCFF222946204600F0D4FB002C02D0A07801F0F1F870BD10B5002801D0002000E00348002802D0008903F0F3FD10BDAC14002010B5002806
:4047C00001D0002000E00448002804D00179072901D100F047F810BDAC14002010B501F04DF9002802D0807801F0CAF810BD00207047000070B50546008A00281ED010499A
:40480000F122897A1140C90618D5294640314A8A098A521C4A4392B2D10800D10121540801E0621A94B2A042FBD9FEF75FFE012804D1298AA878224601F00EFD70BD00009A
:404840004414002010B50023054C0B60248A944204D992001018C26E0A60C36610BD00006415002038B5044600200090A079002814D14020015D052901D00E290ED168464A
:404880000BF0E4FC002809D12046009902F02EFC03481021C28A2046FFF746FC38BD00004414002010B50B4604460146184602F0ABF8002802D020460BF02CFD10BD13B57A
:4048C000044601AA11460620FDF76AFF6846818861811CBD002800D10220704770470000F8B504462346401D543300909A1EA078911E01F0FDFA25464035A88A298A80006E
:40490000FCF7B0FD401E81B2688A884203D96982A07801F0BDFF20460021433001F066FB27480088E88102F0E3FEE989891C8AB26179FFF7A3FD01F0CDFC02F0D9FE2A8A85
:404940006179FFF79BFD074601F0B8FC688A002806D01C49088A032212021043088202E0002001F089FF1748803801886E8A002E0CD0304648431449FCF764FE0004000C00
:4049800001D0401C80B21149488002E00F4800214180288A704381B2A07801F0D9FEFF2228374932B9B21346204602F073FCE98AA07801F04DFEA07801F012FAF8BD0000CC
:4049C00080102E40E0112E4071020000200D00207FB504468034616805460E46183108226846FCF770FE31462031082202A8FCF76AFE102168460BF0C3FB606810210830BE
:404A00000BF0BEFB60682B46083024331022694602F03AFE7FBD10B504460821FFF78FFB10212046FFF78BFB207905281FD006281DD008281AD12189002003F027FC0720F6
:404A400020712046FFF762F8014620464030012913D00E21017000210176204600F0A2FF2046FFF76DFE2046FFF7C4FE10BD20890122002103F0EEFBE1E70521EAE700005C
:404A8000FFB581B01F4604460821FFF758FB10212046FFF754FB2079082803D0092804D0042203E00422012501E009220025204600F032FE264600204036307022712046CC
:404AC000FFF73EFE0398002D02D0012808D00BE001280AD120890022029903F0BBFB04E02189029803F0D2FB012700203076012F04D0204600F056FF05B0F0BD02983073C7
:404B0000204602F041FB054605480121C28A2046FFF70AFB002DEFD109202071ECE700004414002070B50C460546FEF7EFFF012809D108212846FFF702FB002301222146A9
:404B40002846FFF79DFF70BD10B5044600F0E4FD2046FFF7F5FD00214034217010BD70B505461A24FEF7D2FF012809D108212846FFF7E5FA0023012221462846FFF780FF74
:404B800070BD0000F8B50446002000900E4668460BF05CFB002801D00D20F8BD8420005908212030009D00F01AFA20460421383000F015FA002E02D1204600F0E9FD29463D
:404BC000204602F022FA0E480821C28A2046FFF7ABFA204600F057FF25464035002808D0204600F023F8002801D0092028700020F8BD08202870204600F0C0FFF7E7000036
:404C000044140020014610B540310A460978082906D0092907D00A2901D100F091F810BD0B20107010BD00F001F810BD70B50446007925464035052805D0062803D008282A
:404C40000FD00C2070BD03220621204602F070FA0D480821C28A2046FFF766FA1120287010E006202873204602F08EFA0646AA8A0A20424301212046FFF756FA002E01D111
:404C800009202071002070BD4414002038B504460020009068460BF0D9FA002801D00D2038BD2046009D00F0B1F908202071204600F06EFD2946204602F0DAF900213D20C8
:404CC00001550F2040210855204600F057FF002038BD00B5024600F01FFD10214032117000BD10B50446FEF711FF012809D04020005D112805D100231A4606212046FFF7DE
:404D0000BFFE10BD10B5FFF786FE10BD38B504460021684600910BF099FA00280CD12046009902F026FA05480821C28A2046FFF7FBF90D204034207038BD000044140020F2
:404D400038B504460021684600910BF07FFA002801D00D2038BD2046009902F0FFF905480821C28A2046FFF7DFF90C2040342070002038BD4414002000787047F8B5002570
:404D8000002801D0002400E01A4C002C28D0204600F0CBFC002823D0207903281CD005281CD026464036B18AA07801F0DBFCB078012815D10021204601F043FE274680375A
:404DC0003868002802D00BF0AFFA3D600020B0702079072805D007E0042000E006202071F8BD2046FFF706FD0221204600F0E0FEF8BD0000AC14002010B54C22115400F0D1
:404E00004CF810BD10B50446FF21FFF798F909202071A07801F0CCFC10BD000038B5FF216A461180002801D0002400E0084C002C0DD011460620FDF7B3FC684601882046EE
:404E4000FFF73DFD03480068C1692046884738BDAC140020500D002010B504468079002809D022214C200155FF212046FFF767F9204600F012F810BD10B50379024640328C
:404E8000002B03D01173092B02D003E0002100E02221117300F001F810BDFEB504460089002700902781207926464036002817D0012815D002280AD112E002AA01A92046D9
:404EC00001F090FD002807D101980BF023FA204601F0B0FD0028F0D02046FEF75DFCB776254680352868002802D00BF01DFA2F606868002802D00BF017FA6F60317B0029F1
:404F000019D0009800F064F8A078002100F082FF2046FFF7A9FAA07801F0B2F8A07800F02FFDFF212046FFF70AF90B20FFF7C2F800F068FCFEBD1F213173E2E7F8B51746F4
:404F40000E46054602F0D0FB04003CD020460C3001F03CF82046062200211830FCF7BCFB2046062200211230FCF7B6FB1648224600683946436A28469847074626702846D0
:404F8000FEF7C4FD012148406070002D10D02889608028464030C1782171002E0FD169796171018AE180418A2181808A608106E00648008BC005C00F207100206080394611
:404FC000204603F0E6F8F8BD380D002000102E400A4610B50146002003F0F8F910BD10B50AF0AAFE10BD000000B50146FFF716FA002801D0002000E00348002802D00289B6
:405000008A4200D0002000BDAC14002038B5044680346068002806D168460BF027F9002801D100986060606838BD000010B5014600F086FB0128887802D0FEF771FD10BDE5
:405040008C214843024940186030007F10BD00008C14002070B5054604464035A87F012811D1A1788C20084A484380186030067F3046FEF719FF002805D10220A877A0782F
:40508000314601F0B7F870BD8C14002010B50C4CA07A002813D0FEF7B3FF0A48027F417F408B00F0B7FB012809D10020A07200F019FF05498989090B01D000F03BFA10BD8F
:4050C000481500208C140020A0102E4070477047490510B5490F0B00FCF7F8FC060704080C0C0F073E21FFF787FE10BD0821FFF7C3FE10BDFFF7D1FE10BDFFF7ADFE10BDEF
:40510000F8B507460025002D01D0002600E0204E00F096FE3046403044890021418100F0AFFE304600F001FB01282BD1A00702D52846FFF723FEE00602D52846FFF76EFE10
:40514000A00601D5FEF75CFF600601D500F014FB200602D5284600F01DF8600702D5284600F02CFA380402D52846FFF727FB780402D52846FFF714FBE00703D02146304600
:40518000FFF7A6FF6D1C2D062D0EBCD0F8BD0000AC140020F8B5002801D0002400E0284C002C4BD025464035A878012846D1FF278820493700593E46002805D02149897A02
:4051C000890601D5878AC68A2046FEF79FFC012834D002F08DFA2A8A6179FFF74FF9009001F06CF800983346283081B23A46204602F050F8E98AA07801F02AFA124801885D
:40520000688A124E002810D048431149FCF71AFA0004000C01D0401C80B27080A07DC107C90F002001F0FAFA01E000207080288A698A484381B2A07801F08AFAF8BD000071
:40524000AC1400204414002060112E40200D0020710200000149096809680847500D002070B50D460026194A0146002801D0002401E014462034002C26D0204600F060FA79
:4052800001280AD18C20484380186030007FFEF70BFE002801D101F0F7FE0D48006881692046884700280CD020464030817EA94202D3491B817600E086762089294603F077
:4052C00026F8204600F05AFC70BD00008C140020500D002070B503460088FFF785FE040013D000F022FA00280FD02079092819D02546997840352973204601F045FF0646EA
:40530000A878012803D0AA8A02E0022070BDEA880A20424301212046FEF706FF002E01D109202071002070BD0EB5002217216B460292198100905A810120029B00990BF089
:4053400093F80EBDF8B518480024807A002822D1164E0025B089000B22E0204600F060FE1249A039401807882A462146384600F051FA012810D00E480122478305770A4948
:4053800044778A72002D01D0002000E02030002801D000F0F3FBF8BDB089000B641CE4B20028DAD1F8BD000048150020A0102E408C14002010B50088FFF716FE002809D0C7
:4053C000014640310C460978082905D00B2903D00C2010BD022010BDFFF728FC002801D009202070002010BD70B503460088FFF7FBFD040008D0254640352878082805D02F
:405400000B2803D00C2070BD022070BD8420005910220830991CFCF756F92046FFF7D8FA2878082804D02046FFF78AFC002801D00A202870204600F0A1FB002070BD0000B2
:4054400010B50C46002121700088FFF7CDFD03000BD000F06AF9002807D00948F121807A0840C00603D4112010BD022010BD022020701A8A1889002102F0C4FF002010BD02
:4054800044140020F8B50F46002100910088FFF7ABFD040012D000F048F900280ED0E079410641D4617E02264A07002A08DB8907402500291ADA2843E07135E00220F8BDA9
:4054C00002F012F90021017021894180A1898180217E4170E189C1803E7005460178134802F06AFC284602F031FF1DE0204600F02DF9012806D068460AF0A8FE002803D016
:405500000720F8BD2A20F8BDE07900992843E071204601F063FE607E0421304360760448C28A2046FEF700FE0020F8BD1D040000441400203EB500220F236C46029223814E
:4055400000910190628169460EC900200AF08CFF3EBD0000F8B50F46054600F08FFA040025D003202071254600264035EE76E6702046FFF7B5F901F057F80920FEF79AFDCE
:40558000A07800F06BFD0121204600F011FB2E706E70AE703A4600212046FFF7CFFC0649887B401C8873A078FFF754FEF8BD284601F0FEF8F8BD00008C14002010B5002820
:4055C00001D0002000E0094800280DD0014640310A464978022901D100215170807DC107C90F002001F01AF910BD0000AC14002070B503460D460088FFF7F6FC04000BD05E
:4056000000F093F8002807D01248F121807A0840C00603D4112070BD022070BD20464030418A008A491C41430804C10C5888884201D2122070BD20822079072802D120468C
:40564000FFF7D8F8022028702089002102F002FF002070BD44140020016A491C016204D1817E491C4906490E81767047C169491CC16104D1C17E491C4906490EC1767047AA
:40568000F0B5074687B003A8009005A800260D460190002F01D0002400E01B4C002C05D06846FCF76BF8002803D00BE0022007B0F0BD68460089C00704D18C2200212046EB
:4056C000FCF70AF8114829460068826820469047050016D1A77066762746267140373E70204600F019F8204601F0A0F9084820820848BE77807AF121084000D001202075AE
:40570000E682E8B2D3E70000AC140020500D0020B80B000044140020002101628176C161C17620300177417770470079002805D0012803D0022801D00120704700207047EE
:405740004030807F002800D00120704740300078002807D0012805D0052803D00E2801D0012070470020704710B5807801F0DEF8002800D0012010BD10B500F0B3FB034936
:405780008989090B01D0FFF7D5FE10BDA0102E4070B5054604464035A87F002825D1FF206075A0788C21154A484380186030417F8C23491CC9B24177A0785843104B801852
:4057C000DB896030994201D300214177A0788C21484380186030467F0677A1783046FEF763FB002802D00120A87770BD0220A877A078314600F0FEFC70BD00008C14002083
:40580000641500200020401C0006000EFBD0002070470000F0B515468207920F85B0000A02926A469080002D01D0002400E0524C002C28D0084600F0F3FB074668468088ED
:4058400000280BD00298012843D0022841D003280BD03D20005D012870D087E04748381801882046FFF72BF880E00020029002A80AF0CCFC002807D03D20005D012878D1F4
:405880002046FFF7E9FE74E06846029E8388324600213846FCF784FE3848381801882046FFF70DF8284600F0ADFA01AA21463046FEF7FAFD002806D030460AF017FD3D205A
:4058C0004C21085528E0F5773146204601F014FA4FE0002000902089039068460AF086FC002802D0002005B0F0BD6846009E8388321D00213846FCF753FE20483818018803
:405900002046FEF7DCFF284600F07CFA25464035287E00280CD103E02046FFF773FA28E001AA21463046029BFEF7F6FD002806D030460AF0D1FC3D202873EDE713E002987D
:40594000FEF7CCFF01460398307003980901000A0843707068468088B070000AF0703046FFF7E2FC05E02046FFF776FE284600F049FA0120B7E70000AC14002000102E400E
:4059800010B5074A917B002901D0491E91730021FFF776FE002801D0002010BD012010BD8C140020F8B5074606464037B87F00282DD0B0788C2100904843234945186035DA
:4059C000287F0099FEF785FA01281ED0287F401CC4B21E48C089A04200D800240020B877FF276F772F77A87702460146009800F06DFD717DFF2903D0304600F0D8FF777523
:405A000001F042FB0025114F19E00320B877F8BD00200090224669463046FEF713FF0099002904D0FF231A463046FEF76AFA641CF889E4B2A04200D800246D1CEDB2F8896A
:405A4000A842E5D8F8BD00008C1400206415002010B502460021084B03E0002901D0002000E018460479944204D0491C0906090EF3D0002010BD0000AC14002000B501209D
:405A8000FFF7E6FF00BD10B5044601F02DFE2189018080346168416061682831816002F00FFC10BDF7B50646087982B00C46092807D0A078F0770846FFF742FE012806D006
:405AC00010E030460AF026FC022005B0F0BDA1788C20294A484380186030007FFEF7E4F9012810D0A078FEF7EDFD01280BD037780121304601F074FA25462035062F38D0BD
:405B00000B2F0FD107E06846027C21463046FEF7C9FE0D20D9E72046FDF7F8FF012801D1002028772046FFF781FA054604AA21463046FEF726FD01205F2108556946097CB0
:405B4000002001910090A07833463A46294600F0FBFA69460A7CA0780323294600F03CFEA0782946FDF7F6FD30460AF0D3FB0020ABE70120D5E700008C14002010B502466A
:405B80004032937F0021002B03D1927E002A00D00121064A927A002A00D000210279092A00D10121807800F059FE10BD4815002070B50C460546FDF7A9FF00280BD1012CE5
:405BC00006D92879092806D02846FFF7CDFD0446002C02D004E0012402E0A87DC007FAD1A87DC107C90F204600F018FE70BD0000012807D0082804D1044802820348083050
:405C00000180704701488038FAE70000A0102E40014908817047000000102E4010B50446FF20F130012C01D1FF20D530002200F047FE044A108A044980B2A04308801082F7
:405C400010BD000000102E40240D0020034B198A034A89B2814311801982704700102E40240D002010B50446012802D0082C07D102E0FF20D53001E0FF20F13000F018FE56
:405C80000348018A034A89B221431180018210BD00102E40240D0020034B198A034A89B2014311801982704700102E40240D0020F8B505460120A84086B214460F460122F8
:405CC00031467C2000F0FCFD3A463146782000F0F7FD6078267800020643E078A2780002024360792379000203430C2045430D2080010549281844182680001D44182280F1
:405D0000001D40180380F8BD00102E40401880B270470000CB065B0E0343480901021943D00108430121C902084301490881704780142E404278037812021343084A138261
:405D4000C37880781B021843908248780B78000203431383C8788978000201439183704700142E40024A1080000C90801181704700142E40044A002180180288491C89B27D
:405D80001029FAD37047000000102E40024A10820148803081817047A0102E407047000010B5054A1082084600F0AEFD024A0021A03A8018018010BDA0102E4010B50B4653
:405DC000044600F005F819462046FFF7DFFF10BD024A10820148803001817047A0102E4010B504490882FF20002220211D3000F067FD10BDA0102E400149088070470000A5
:405E0000C0102E40000202494D3008807047000000102E4010B5084B074C0202A03B0029208202D075321A8010BD04490020088088807632F7E70000A0102E40201A2E405F
:405E400000B5034908884880FFF700FF00BD0000240D0020014950200880704700102E4006490E220028888806D01043888003495120C039088070479043F7E7C0102E4083
:405E800000B502484088FFF707FF00BD240D002010B5FCF76FFD10BD014952200880704700102E40884201D8081A03E00022D243101A401880B27047002101707047000014
:405EC0000748808806492039098B884201D8081A03E00022D243101A401880B27047000020112E400148008AC0B27047A0102E4070B5084C049D2082074804890548603097
:405F000006880E8001891180808818806007400F287070BDA0102E40E0112E400148008970470000C0102E4000280FD00D4A108B0870000A4870908B8870000AC8700948F2
:405F4000203000880871000A48717047064A10880870000A487090888870000AC8701089F0E7000040102E40C0112E4000B5024A00F004F800BD0000FF7F000000B513463F
:405F8000FFF790FF984201D8022800D2002000BD0148008A70470000001A2E40024908820248008970470000A0102E40001A2E40014880887047000020102E40024908823E
:405FC0000148803000887047A0102E40064B1A8999891B8A0270120A42708170090AC1700371190A4171704760102E40012904D00549098BC90B0170704703494031098912
:406000008907C90FF7E7000000102E40024908820248008970470000A0102E40201A2E40014840897047000064150020024908820248808970470000A0102E40001A2E4090
:40604000044A10820448028980894843101880B270470000A0102E40641500208C21074B414300B5C918FF2260314A770A7700228A77114600F02AFA00BD00008C140020F5
:406080008C225043074A10B58018FF21603041770177002181770448418EFF201D3000F007FC10BD8C1400204414002000B5044A1082034880308088022200F003F800BD15
:4060C000A0102E4010B50023884201D8081A03E00024E443201A4018044980B2884201D8824200D90123184610BD0000FF7F0000024880880006C00F70470000C0102E406D
:4061000002488089C007C00F70470000201A2E4070B55478157824022543D47888232602947834435679127936023243002900D09823044908820348A038181805808480FB
:40614000028170BDA0102E40FFB581B014460D4607460A9E0B9BFFF773FF002E0AD0009333460021049AFCF7ABFA05484019C45505B0F0BD0021049AFCF788FAF5E7000020
:40618000280D002070B502460448054D808808242C800B460021FCF779FA70BD64150020A0142E4010B5212402466401044953200880102300212046FCF768FA10BD000004
:4061C00000102E40417802780902044B0A431A83C1788078090208439883704760142E40034A1082802001430148803001817047A0102E40054A1082044A6032908B000977
:40620000000108439115084390837047A0102E4030B500210F4B0A46012809D0032802D005280AD107E04021198102210A2204E004210C2201E004210D221882054C2034A6
:406240002088C0B205460D42FAD022800021198230BD000080142E4010B5044607480482074801808280032189030820FFF7FAFC200202497530A039088010BDA0102E407B
:40628000201A2E40054A1082044A60321183000202494B30A039088070470000A0102E40054A491E1082044A60321183000202494C30A03908807047A0102E400349884212
:4062C00000D908460249088070470000FF0F000060112E400349884200D908460249888070470000FF0F000060112E408823002900D09823084908820748A03819180888AA
:406300001070000A507088889070000AD07008891071000A50717047A0102E4010B51446024606480B46C0880021FCF795F9012C02D103495420088010BD00006415002069
:4063400000102E40064A11880170090A417091888170090AC1700349542008807047000080142E4000102E400121814010B589B200227C2000F0A4FA10BD0000FEB5FF21E5
:406380000120FFF74BFCFF210820FFF747FC3020FFF75CFC3F48802101803F483F4D00784007400F02286FD001286BD100202880002211460320FCF7F3F9394E3949B08D3F
:4063C0008882384F002420373248A0300482308F38822046FFF754FE641C2406240EF3D0B08F38832E48103000F052F9716930690191009069464879C02108436946487177
:40640000684600F06DF900F055F82548214C40304188A03421838188A1831E49C088C0318880708E38802048002606823920FFF733FC184F532038801C4907200883542054
:406440003880E020FFF796FCE820FFF793FCF020FFF790FC0020FEF707F813488682282101838015A0810F48403086815B203880094800784007400F022807D0012801D167
:406480000B482880FEBDFFE7032090E70848C01CF7E7000000102E4064150020001F2E4044140020C0112E40001A2E4080142E40E0230000044800218183018302497420E0
:4064C000603908807047000060102E40074B1882064B6033988B00090001084399158843002A01D11021484098837047A0102E40F3B50D2284B0920100924A780B781202F7
:4065000013430393CA788B78120213434A790979FF20120211431A4A8C46918B9E460291118B01911649742260390A80154900220F7821E00121124B9140009C603BE3185B
:406540001D8889B21C881B88039E6E407546654064462E435C4026430CD1029B194209D00199D140CB070499DB0F8B4202D1104606B0F0BD521CD2B29742DBD8F8E70000BD
:4065800060102E408414002030B50949FF208C8B084A00210125137805E02A468A40224204D0491CC9B28B42F7D830BD084630BD60102E408414002010B50446E020FFF71E
:4065C000D9FB20782246401CC3B20021E020FCF703F810BD42790021012A02D901214171090342790A430179042914D049001143827B032A01D8D2001143427B52010A43A2
:40660000817909021143012252031143054A118300889083704711460122920211430222E5E7000000102E4000B50120FFF70EFB01494120088000BD00102E4000B5012017
:40664000FFF72AFB01494020088000BD00102E40024A10820148603081817047A0102E4010B5044C208204488180028183815143018210BDA0102E40A0132E40034B18826E
:40668000024820388180028070470000A0102E404178027809020A4306490A80C2788378120213438B804279007912021043088170470000C0112E404178027809020A432D
:4066C00006490A81C2788378120213438B81427900791202104308827047000060102E40417802780902084B0A431A83C178827809020A439A834179007909020843024964
:40670000203108807047000040102E404178027809020A4306498A80C2788378120213430B814279007912021043888170470000001F2E4010B50446E820FFF71BFB207859
:406740002246401CC3B20021E820FBF745FF10BD024A10820248818370470000A0102E40001A2E40024A10820148603081807047A0102E4010B5044688000521FAF772FE80
:4067800004490C8204498880200202497230A039088010BDA0102E40001A2E4003490882000202497330A03908807047A0102E4003490882000202497030A03908807047EF
:4067C000A0102E4003490882000202497130A03908807047A0102E40F8B505461C4617460E46084600F090F8054AB90021431582034AA03A80180180024880194455F8BD3C
:40680000A0102E402D0D0020034A118B8905890D8002084310837047A0102E4030B50E4C238A01251A46012804D0022804D000290BD00CE02A430AE0002908D12A432282D7
:406840005008400020821A4601E05A0852009A4200D0228230BD0000001A2E40054A1082044A6032908B4023984389010143918370470000A0102E40044A118A022300281D
:4068800001D0194300E0994311827047001A2E4000B5064A1082054860300181002901D0012000E00020FFF7E7FF00BDA0102E40024A801802880A430280704700102E40E3
:4068C00070B5084BC5182C880023080003D104E040085B1C9BB2C607FAD08C439A4022432A8070BD00102E40024A1018405C8007800F70472D0D00200249088201488030A1
:4069000080897047A0102E408000FF3041307047044B02461B8AFF208B4202D902484018805C704764150020280D0020024908820148803000897047A0102E4017490246A8
:406940000B680020002B08D10A605207520F012A04D0022A10D0086012207047112292018A80CA80032252020A810122D2024A8140228A8105220DE0092252028A80CA80CC
:40698000012252030A810322D2024A81012252028A810422CA810A8270470000641500200A4600B501461046FFF7B2FF00BD38B50C46054600216846009109F047FC0028ED
:4069C00004D1009928464C7000F0FAFB38BD10B5044680780021FFF73BFE01212046FFF7E7F810BD436E002B0CD00B60014660318B781370826E4266CA788A700021816647
:406A000008467047FF20704710B50346446E6033002C04D0846E002C04D0FF2010BD41669A7001E08166DA70002010BD0021416681667047406E002801D000207047FF2097
:406A4000704770B50446C0790D46810610D5DF210840E07100F048FE0570218941804034218A8180618AC180A18A018101F064FB70BD000010B50446FEF762FE01280AD16B
:406A8000A1788C20054A484380186030007FFDF70BFA012801D000F0F7FA10BD8C140020F8B50E460446FDF731F801282BD02079042801D0072825D1F079B7790002074303
:406AC000A0783946FFF7F2FA25464035012820D03A46711C204600F084FA02212046FDF73AFEA07DC107C90F0220FFF797FE688A002807D0E87E002804D103210902082079
:406B0000FFF7B0F8F8BD01222421204600F010FBF8BD282028732046FEF774F9F8BD70B50D460646FDF7ACFD002852D120213046FDF705FB3446687840346073E87820228A
:406B40000002E081A9780843E0816879010228790843218A814203D0F1791143F1712082E8790102A8790843618A814203D0F1791143F1716082687A0102287A0843A18AC2
:406B8000E180814203D0F1791143F171A082A08A218A8000FAF766FC401E618A80B2814200D9608201213046FDF7D8FDE87AA97A000201430022304600F02AFB608A002810
:406BC00007D0E07E002804D1032109020820FFF749F870BDF8B50C4605460027FCF796FF012847D0284EB07AC00709D02846403000900078002806D0102803D01F212CE0F4
:406C00001A212AE001272846FEF700FA002823D02E4680360822611C7068FAF754FD7068617A20300172A17A417270682146183008220B31FAF747FD2146284604221331DF
:406C40003430FAF740FD39462846FDF79BFF002810D1002F0FD012E007210322284600F067FAF28A08212846FDF75EFA11212846FDF777FDF8BD06212846FDF775FD009843
:406C800001210176F8BD00004414002010B5FDF7B9FF10BD38B504460020009020790D46042801D007281BD12046FCF72FFF012817D0684609F0CAFA002811D10C486A78A3
:406CC000807A00991040F12210402075607E082210436076204600F0B3F92046FDF787FD38BD08222421204600F022FA38BD00004414002070470000F3B581B004460298F1
:406D0000FEF73AF806462046FEF70FFD002828D0162E04D32046029900F0F7F821E025464035287800220300FAF7D0FE0E1414140808141414080808080808140298154B25
:406D4000017800201F5C8F4204D0401C0728F9D3002A0AD00F49B00008310A58204602999047029809F0C2FAFEBDA078FFF720FD002301223D212046FDF782FE3D202873D9
:406D80002046FFF724FE029809F0B0FA2046FEF784F8FEBDE42C010070B50D460021002801D0002400E00C4C002C14D020464030C177807F032802D12046FEF7F3FD2046BB
:406DC000FFF758FE162D04D20449A800095820468847FEF717FD70BDAC140020442D010010B5014640310C4609780E2903D1FDF74DFF0120207610BD10B54021095C0F2939
:406E000001D1FDF766FF10BD4021095C0F2902D1002120304177704738B5044600220E4800920D46807AF1210840C0060ED52046FEF78CFC012809D0684609F007FA002863
:406E400003D12046009900F05DF938BD2946204600F05BF838BD00004414002010B51021FDF76DF910BD10B54978FDF75BFE10BD10B5FDF736FF10BD012120304177704726
:406E800010B54021095C0C2901D1FDF73FFF10BD10B54021095C0D2901D1FDF733FF10BD70B5044600790D46052803D0062801D0082802D12046FDF747FE68784C21085535
:406EC00009212046FDF750FC2046FFF780FD2046FCF71CFE0128A07805D0FFF769FC2046FEF74CFE70BDFFF76DFCF8E710B50446FF21FDF724F916214C200155A078FFF7AE
:406F000057FC2046FEF73AFE10BD70B50C460546FEF716FC002802D02078687570BD21782846FFF744FD70BD70B5054648780C46032802D12846FDF712FE6078122803D1F6
:406F400010212846FDF7FBF803482146006842682846904770BD0000500D0020704738B5044600200D46009004212046FDF7E7F868782076E8780002A081A9780843A08103
:406F800068790002E08129790843E081607E04210843607680070CD4684609F057F900281CD12046009900F019F9607E022108436076E079410611D5BF210840E07100F096
:406FC00093FB00210090017021894180A1898180217E4170E189C18001F0B8F938BD7047704770B50446C07815460A4600280AD00020E070C1B2A078FFF78AF8A0782946FD
:40700000FFF740F970BD0120F3E770B50546042008700C468420415908222031601CFAF752FB29462046042238310930FAF74BFB0D2229462046FEF735FD002070BD0000DC
:4070400070B5054609200C46087008220021601CFAF742FB287D607004480922C07AA07029462046FEF71EFD002070BD441400200B4610B501460B20187001221846FEF752
:4070800011FD002010BD0000FEB50024164F03E0002C01D0002500E03D462846FFF7CAFC00281BD15F20405D002817D16A4601A92846FFF797FC002810D1019869460A78A3
:4070C00006782946FEF7EEFC022E07D1A8780121FFF7C4FB09212846FDF746FB641C2406240ED5D0FEBD0000AC14002010B50B46122119708178D977014601221846FEF704
:40710000D1FC10BD10B50B46132119708178D97706490989C90603D1C18A40221143C182014601221846FEF7BDFC10BD20112E4038B50546002000900C46684609F086F890
:40714000002801D0072038BD00980D210170447002222946FEF7A6FC002038BD0B4610B501460520187001221846FEF79BFC002010BD0B4610B50146062018700122184640
:40718000FEF790FC002010BD38B5054600200090684609F05BF8002801D01F2038BD009C022020704C20405D6070A878E0772846FFF70DFC022229462046FEF773FC38BDF5
:4071C00010B50B46072119708178D977014602221846FEF767FC002010BD000010B50B460A49044608880C221A704A795A709870000AD870C8881871000A58710622214654
:407200001846FEF74FFC002010BD000044140020F8B50446403417460E460546E289617B8078FFF72BFA002F0DD100F061FAE2896979FDF723F9FFF74DF8608A002800D0B8
